{
  "_format": "hh-sol-artifact-1",
  "contractName": "Game",
  "sourceName": "contracts/Game.sol",
  "abi": [
    {
      "inputs": [],
      "name": "InvalidInitialization",
      "type": "error"
    },
    {
      "inputs": [],
      "name": "NotInitializing",
      "type": "error"
    },
    {
      "inputs": [
        {
          "internalType": "address",
          "name": "owner",
          "type": "address"
        }
      ],
      "name": "OwnableInvalidOwner",
      "type": "error"
    },
    {
      "inputs": [
        {
          "internalType": "address",
          "name": "account",
          "type": "address"
        }
      ],
      "name": "OwnableUnauthorizedAccount",
      "type": "error"
    },
    {
      "inputs": [],
      "name": "ReentrancyGuardReentrantCall",
      "type": "error"
    },
    {
      "anonymous": false,
      "inputs": [
        {
          "indexed": false,
          "internalType": "uint64",
          "name": "version",
          "type": "uint64"
        }
      ],
      "name": "Initialized",
      "type": "event"
    },
    {
      "anonymous": false,
      "inputs": [
        {
          "indexed": true,
          "internalType": "address",
          "name": "previousOwner",
          "type": "address"
        },
        {
          "indexed": true,
          "internalType": "address",
          "name": "newOwner",
          "type": "address"
        }
      ],
      "name": "OwnershipTransferred",
      "type": "event"
    },
    {
      "inputs": [
        {
          "internalType": "address",
          "name": "",
          "type": "address"
        },
        {
          "internalType": "uint256",
          "name": "",
          "type": "uint256"
        }
      ],
      "name": "gameRecord",
      "outputs": [
        {
          "internalType": "enum IGame.Mode",
          "name": "mode",
          "type": "uint8"
        },
        {
          "internalType": "bool",
          "name": "result",
          "type": "bool"
        },
        {
          "internalType": "uint256",
          "name": "reward",
          "type": "uint256"
        },
        {
          "internalType": "uint256",
          "name": "time",
          "type": "uint256"
        }
      ],
      "stateMutability": "view",
      "type": "function"
    },
    {
      "inputs": [],
      "name": "initialize",
      "outputs": [],
      "stateMutability": "nonpayable",
      "type": "function"
    },
    {
      "inputs": [
        {
          "internalType": "enum IMonstersMeta.Evolution",
          "name": "",
          "type": "uint8"
        }
      ],
      "name": "monsters",
      "outputs": [
        {
          "internalType": "uint256",
          "name": "winrate",
          "type": "uint256"
        },
        {
          "internalType": "uint256",
          "name": "winReward",
          "type": "uint256"
        },
        {
          "internalType": "uint256",
          "name": "loseReward",
          "type": "uint256"
        }
      ],
      "stateMutability": "view",
      "type": "function"
    },
    {
      "inputs": [],
      "name": "owner",
      "outputs": [
        {
          "internalType": "address",
          "name": "",
          "type": "address"
        }
      ],
      "stateMutability": "view",
      "type": "function"
    },
    {
      "inputs": [
        {
          "internalType": "enum IGame.Mode",
          "name": "_mode",
          "type": "uint8"
        },
        {
          "internalType": "uint256",
          "name": "_tokenId",
          "type": "uint256"
        }
      ],
      "name": "play",
      "outputs": [
        {
          "internalType": "bool",
          "name": "",
          "type": "bool"
        }
      ],
      "stateMutability": "nonpayable",
      "type": "function"
    },
    {
      "inputs": [],
      "name": "renounceOwnership",
      "outputs": [],
      "stateMutability": "nonpayable",
      "type": "function"
    },
    {
      "inputs": [
        {
          "internalType": "enum IMonstersMeta.Evolution[]",
          "name": "_evo",
          "type": "uint8[]"
        },
        {
          "internalType": "uint256[]",
          "name": "_loseReward",
          "type": "uint256[]"
        }
      ],
      "name": "setLoseReward",
      "outputs": [],
      "stateMutability": "nonpayable",
      "type": "function"
    },
    {
      "inputs": [],
      "name": "setMaintenance",
      "outputs": [],
      "stateMutability": "nonpayable",
      "type": "function"
    },
    {
      "inputs": [
        {
          "internalType": "uint256",
          "name": "_maxEnergy",
          "type": "uint256"
        }
      ],
      "name": "setMaxEnergy",
      "outputs": [],
      "stateMutability": "nonpayable",
      "type": "function"
    },
    {
      "inputs": [
        {
          "internalType": "address",
          "name": "_contractRegistry",
          "type": "address"
        }
      ],
      "name": "setRegistry",
      "outputs": [],
      "stateMutability": "nonpayable",
      "type": "function"
    },
    {
      "inputs": [
        {
          "internalType": "enum IMonstersMeta.Evolution[]",
          "name": "_evo",
          "type": "uint8[]"
        },
        {
          "internalType": "uint256[]",
          "name": "_winrate",
          "type": "uint256[]"
        }
      ],
      "name": "setWinRate",
      "outputs": [],
      "stateMutability": "nonpayable",
      "type": "function"
    },
    {
      "inputs": [
        {
          "internalType": "enum IMonstersMeta.Evolution[]",
          "name": "_evo",
          "type": "uint8[]"
        },
        {
          "internalType": "uint256[]",
          "name": "_winReward",
          "type": "uint256[]"
        }
      ],
      "name": "setWinReward",
      "outputs": [],
      "stateMutability": "nonpayable",
      "type": "function"
    },
    {
      "inputs": [],
      "name": "system",
      "outputs": [
        {
          "internalType": "address",
          "name": "contractRegistry",
          "type": "address"
        },
        {
          "internalType": "uint256",
          "name": "maxEnergy",
          "type": "uint256"
        },
        {
          "internalType": "uint256",
          "name": "userPercent",
          "type": "uint256"
        },
        {
          "internalType": "uint256",
          "name": "uplinePercent",
          "type": "uint256"
        },
        {
          "internalType": "bool",
          "name": "isUndermaintenance",
          "type": "bool"
        }
      ],
      "stateMutability": "view",
      "type": "function"
    },
    {
      "inputs": [
        {
          "internalType": "address",
          "name": "newOwner",
          "type": "address"
        }
      ],
      "name": "transferOwnership",
      "outputs": [],
      "stateMutability": "nonpayable",
      "type": "function"
    },
    {
      "inputs": [
        {
          "internalType": "address",
          "name": "",
          "type": "address"
        }
      ],
      "name": "users",
      "outputs": [
        {
          "internalType": "uint256",
          "name": "earnings",
          "type": "uint256"
        },
        {
          "internalType": "uint256",
          "name": "energy",
          "type": "uint256"
        },
        {
          "internalType": "uint256",
          "name": "lastTimeOfPlay",
          "type": "uint256"
        },
        {
          "internalType": "uint256",
          "name": "gameCount",
          "type": "uint256"
        }
      ],
      "stateMutability": "view",
      "type": "function"
    }
  ],
  "bytecode": "0x608060405234801561001057600080fd5b50612702806100206000396000f3fe608060405234801561001057600080fd5b50600436106100f55760003560e01c806395bf75fd11610097578063a91ee0dc11610066578063a91ee0dc1461026a578063ac9c102614610286578063ee50b21614610290578063f2fde38b146102ac576100f5565b806395bf75fd146101c65780639b1e733e146101e8578063a069d05f1461021b578063a87430ba14610237576100f5565b8063715018a6116100d3578063715018a6146101785780638129fc1c146101825780638b63538c1461018c5780638da5cb5b146101a8576100f5565b8063314040ad146100fa57806341e4cb4614610116578063665da33814610148575b600080fd5b610114600480360381019061010f91906117e3565b6102c8565b005b610130600480360381019061012b9190611835565b6102dd565b60405161013f93929190611871565b60405180910390f35b610162600480360381019061015d91906118cd565b610307565b60405161016f9190611928565b60405180910390f35b610180610a17565b005b61018a610a2b565b005b6101a660048036038101906101a19190611b5f565b610bc9565b005b6101b0610cac565b6040516101bd9190611c18565b60405180910390f35b6101ce610ce4565b6040516101df959493929190611c33565b60405180910390f35b61020260048036038101906101fd9190611cb2565b610d35565b6040516102129493929190611d69565b60405180910390f35b61023560048036038101906102309190611b5f565b610d8c565b005b610251600480360381019061024c9190611dae565b610ecd565b6040516102619493929190611ddb565b60405180910390f35b610284600480360381019061027f9190611dae565b610efd565b005b61028e610f4b565b005b6102aa60048036038101906102a59190611b5f565b610f85565b005b6102c660048036038101906102c19190611dae565b611068565b005b6102d06110ee565b8060006001018190555050565b60056020528060005260406000206000915090508060000154908060010154908060020154905083565b6000610311611175565b60008060000160009054906101000a900473ffffffffffffffffffffffffffffffffffffffff16905060008173ffffffffffffffffffffffffffffffffffffffff1663bf40fac16040518163ffffffff1660e01b815260040161037390611e7d565b602060405180830381865afa158015610390573d6000803e3d6000fd5b505050506040513d601f19601f820116820180604052508101906103b49190611eb2565b905060008273ffffffffffffffffffffffffffffffffffffffff1663bf40fac16040518163ffffffff1660e01b81526004016103ef90611f2b565b602060405180830381865afa15801561040c573d6000803e3d6000fd5b505050506040513d601f19601f820116820180604052508101906104309190611eb2565b905060008373ffffffffffffffffffffffffffffffffffffffff1663bf40fac16040518163ffffffff1660e01b815260040161046b90611f97565b602060405180830381865afa158015610488573d6000803e3d6000fd5b505050506040513d601f19601f820116820180604052508101906104ac9190611eb2565b905060008473ffffffffffffffffffffffffffffffffffffffff1663bf40fac16040518163ffffffff1660e01b81526004016104e790612003565b602060405180830381865afa158015610504573d6000803e3d6000fd5b505050506040513d601f19601f820116820180604052508101906105289190611eb2565b905060008373ffffffffffffffffffffffffffffffffffffffff16637eb0e8be896040518263ffffffff1660e01b81526004016105659190612023565b602060405180830381865afa158015610582573d6000803e3d6000fd5b505050506040513d601f19601f820116820180604052508101906105a69190612053565b9050600060405180608001604052808b60028111156105c8576105c7611cf2565b5b8152602001600015158152602001600560008560058111156105ed576105ec611cf2565b5b60058111156105ff576105fe611cf2565b5b815260200190815260200160002060020154815260200142815250905060008573ffffffffffffffffffffffffffffffffffffffff1663e4c7b34b8b6040518263ffffffff1660e01b81526004016106579190612023565b600060405180830381865afa158015610674573d6000803e3d6000fd5b505050506040513d6000823e3d601f19601f8201168201806040525081019061069d9190612165565b9450505050503373ffffffffffffffffffffffffffffffffffffffff168773ffffffffffffffffffffffffffffffffffffffff16636352211e8c6040518263ffffffff1660e01b81526004016106f39190612023565b602060405180830381865afa158015610710573d6000803e3d6000fd5b505050506040513d601f19601f820116820180604052508101906107349190611eb2565b73ffffffffffffffffffffffffffffffffffffffff161461078a576040517f08c379a00000000000000000000000000000000000000000000000000000000081526004016107819061226e565b60405180910390fd5b60006107946111cc565b116107d4576040517f08c379a00000000000000000000000000000000000000000000000000000000081526004016107cb906122da565b60405180910390fd5b42811115610817576040517f08c379a000000000000000000000000000000000000000000000000000000000815260040161080e90612346565b60405180910390fd5b6000600560008560058111156108305761082f611cf2565b5b600581111561084257610841611cf2565b5b8152602001908152602001600020600001548573ffffffffffffffffffffffffffffffffffffffff1663bc85777c60646040518263ffffffff1660e01b815260040161088e91906123ab565b6020604051808303816000875af11580156108ad573d6000803e3d6000fd5b505050506040513d601f19601f820116820180604052508101906108d191906123c6565b1115905080156109f2578573ffffffffffffffffffffffffffffffffffffffff166340c10f19336005600088600581111561090f5761090e611cf2565b5b600581111561092157610920611cf2565b5b8152602001908152602001600020600101546040518363ffffffff1660e01b81526004016109509291906123f3565b600060405180830381600087803b15801561096a57600080fd5b505af115801561097e573d6000803e3d6000fd5b505050506001836020019015159081151581525050600560008560058111156109aa576109a9611cf2565b5b60058111156109bc576109bb611cf2565b5b8152602001908152602001600020600101548360400181815250506109e0836112fa565b60019950505050505050505050610a09565b6109fb836112fa565b600099505050505050505050505b610a116114f2565b92915050565b610a1f6110ee565b610a29600061150b565b565b6000610a356115e2565b905060008160000160089054906101000a900460ff1615905060008260000160009054906101000a900467ffffffffffffffff1690506000808267ffffffffffffffff16148015610a835750825b9050600060018367ffffffffffffffff16148015610ab8575060003073ffffffffffffffffffffffffffffffffffffffff163b145b905081158015610ac6575080155b15610afd576040517ff92ee8a900000000000000000000000000000000000000000000000000000000815260040160405180910390fd5b60018560000160006101000a81548167ffffffffffffffff021916908367ffffffffffffffff1602179055508315610b4d5760018560000160086101000a81548160ff0219169083151502179055505b610b563361160a565b610b5e61161e565b610b66611628565b8315610bc25760008560000160086101000a81548160ff0219169083151502179055507fc7f505b2f371ae2175ee4913f4499e1f2633a7b5936321eed1cdaeb6115181d26001604051610bb9919061246b565b60405180910390a15b5050505050565b610bd16110ee565b8051825114610c15576040517f08c379a0000000000000000000000000000000000000000000000000000000008152600401610c0c906124d2565b60405180910390fd5b60005b8251811015610ca757818181518110610c3457610c336124f2565b5b602002602001015160056000858481518110610c5357610c526124f2565b5b60200260200101516005811115610c6d57610c6c611cf2565b5b6005811115610c7f57610c7e611cf2565b5b8152602001908152602001600020600201819055508080610c9f90612550565b915050610c18565b505050565b600080610cb761163a565b90508060000160009054906101000a900473ffffffffffffffffffffffffffffffffffffffff1691505090565b60008060000160009054906101000a900473ffffffffffffffffffffffffffffffffffffffff16908060010154908060020154908060030154908060040160009054906101000a900460ff16905085565b6007602052816000526040600020602052806000526040600020600091509150508060000160009054906101000a900460ff16908060000160019054906101000a900460ff16908060010154908060020154905084565b610d946110ee565b8051825114610dd8576040517f08c379a0000000000000000000000000000000000000000000000000000000008152600401610dcf906124d2565b60405180910390fd5b60005b8251811015610ec8576064828281518110610df957610df86124f2565b5b60200260200101511115610e42576040517f08c379a0000000000000000000000000000000000000000000000000000000008152600401610e39906125e4565b60405180910390fd5b818181518110610e5557610e546124f2565b5b602002602001015160056000858481518110610e7457610e736124f2565b5b60200260200101516005811115610e8e57610e8d611cf2565b5b6005811115610ea057610e9f611cf2565b5b8152602001908152602001600020600001819055508080610ec090612550565b915050610ddb565b505050565b60066020528060005260406000206000915090508060000154908060010154908060020154908060030154905084565b610f056110ee565b806000800160006101000a81548173ffffffffffffffffffffffffffffffffffffffff021916908373ffffffffffffffffffffffffffffffffffffffff16021790555050565b610f536110ee565b600060040160009054906101000a900460ff1615600060040160006101000a81548160ff021916908315150217905550565b610f8d6110ee565b8051825114610fd1576040517f08c379a0000000000000000000000000000000000000000000000000000000008152600401610fc8906124d2565b60405180910390fd5b60005b825181101561106357818181518110610ff057610fef6124f2565b5b60200260200101516005600085848151811061100f5761100e6124f2565b5b6020026020010151600581111561102957611028611cf2565b5b600581111561103b5761103a611cf2565b5b815260200190815260200160002060010181905550808061105b90612550565b915050610fd4565b505050565b6110706110ee565b600073ffffffffffffffffffffffffffffffffffffffff168173ffffffffffffffffffffffffffffffffffffffff16036110e25760006040517f1e4fbdf70000000000000000000000000000000000000000000000000000000081526004016110d99190611c18565b60405180910390fd5b6110eb8161150b565b50565b6110f6611662565b73ffffffffffffffffffffffffffffffffffffffff16611114610cac565b73ffffffffffffffffffffffffffffffffffffffff161461117357611137611662565b6040517f118cdaa700000000000000000000000000000000000000000000000000000000815260040161116a9190611c18565b60405180910390fd5b565b600061117f61166a565b905060028160000154036111bf576040517f3ee5aeb500000000000000000000000000000000000000000000000000000000815260040160405180910390fd5b6002816000018190555050565b600080600660003373ffffffffffffffffffffffffffffffffffffffff1673ffffffffffffffffffffffffffffffffffffffff16815260200190815260200160002060020154036112245760006001015490506112f7565b6000611c20600660003373ffffffffffffffffffffffffffffffffffffffff1673ffffffffffffffffffffffffffffffffffffffff16815260200190815260200160002060020154426112779190612604565b6112819190612667565b9050600081600660003373ffffffffffffffffffffffffffffffffffffffff1673ffffffffffffffffffffffffffffffffffffffff168152602001908152602001600020600101546112d39190612698565b90506000600101548111156112f157600060010154925050506112f7565b80925050505b90565b6001600660003373ffffffffffffffffffffffffffffffffffffffff1673ffffffffffffffffffffffffffffffffffffffff168152602001908152602001600020600301600082825461134d9190612698565b92505081905550600161135e6111cc565b6113689190612604565b600660003373ffffffffffffffffffffffffffffffffffffffff1673ffffffffffffffffffffffffffffffffffffffff1681526020019081526020016000206001018190555042600660003373ffffffffffffffffffffffffffffffffffffffff1673ffffffffffffffffffffffffffffffffffffffff1681526020019081526020016000206002018190555080600760003373ffffffffffffffffffffffffffffffffffffffff1673ffffffffffffffffffffffffffffffffffffffff1681526020019081526020016000206000600660003373ffffffffffffffffffffffffffffffffffffffff1673ffffffffffffffffffffffffffffffffffffffff16815260200190815260200160002060030154815260200190815260200160002060008201518160000160006101000a81548160ff021916908360028111156114b3576114b2611cf2565b5b021790555060208201518160000160016101000a81548160ff021916908315150217905550604082015181600101556060820151816002015590505050565b60006114fc61166a565b90506001816000018190555050565b600061151561163a565b905060008160000160009054906101000a900473ffffffffffffffffffffffffffffffffffffffff169050828260000160006101000a81548173ffffffffffffffffffffffffffffffffffffffff021916908373ffffffffffffffffffffffffffffffffffffffff1602179055508273ffffffffffffffffffffffffffffffffffffffff168173ffffffffffffffffffffffffffffffffffffffff167f8be0079c531659141344cd1fd0a4f28419497f9722a3daafe3b4186f6b6457e060405160405180910390a3505050565b60007ff0c57e16840df040f15088dc2f81fe391c3923bec73e23a9662efc9c229c6a00905090565b611612611692565b61161b816116d2565b50565b611626611692565b565b611630611692565b611638611758565b565b60007f9016d09d72d40fdae2fd8ceac6b6234c7706214fd39c1cd1e609a0528c199300905090565b600033905090565b60007f9b779b17422d0df92223018b32b4d1fa46e071723d6817e2486d003becc55f00905090565b61169a611779565b6116d0576040517fd7e6bcf800000000000000000000000000000000000000000000000000000000815260040160405180910390fd5b565b6116da611692565b600073ffffffffffffffffffffffffffffffffffffffff168173ffffffffffffffffffffffffffffffffffffffff160361174c5760006040517f1e4fbdf70000000000000000000000000000000000000000000000000000000081526004016117439190611c18565b60405180910390fd5b6117558161150b565b50565b611760611692565b600061176a61166a565b90506001816000018190555050565b60006117836115e2565b60000160089054906101000a900460ff16905090565b6000604051905090565b600080fd5b600080fd5b6000819050919050565b6117c0816117ad565b81146117cb57600080fd5b50565b6000813590506117dd816117b7565b92915050565b6000602082840312156117f9576117f86117a3565b5b6000611807848285016117ce565b91505092915050565b6006811061181d57600080fd5b50565b60008135905061182f81611810565b92915050565b60006020828403121561184b5761184a6117a3565b5b600061185984828501611820565b91505092915050565b61186b816117ad565b82525050565b60006060820190506118866000830186611862565b6118936020830185611862565b6118a06040830184611862565b949350505050565b600381106118b557600080fd5b50565b6000813590506118c7816118a8565b92915050565b600080604083850312156118e4576118e36117a3565b5b60006118f2858286016118b8565b9250506020611903858286016117ce565b9150509250929050565b60008115159050919050565b6119228161190d565b82525050565b600060208201905061193d6000830184611919565b92915050565b600080fd5b6000601f19601f8301169050919050565b7f4e487b7100000000000000000000000000000000000000000000000000000000600052604160045260246000fd5b61199182611948565b810181811067ffffffffffffffff821117156119b0576119af611959565b5b80604052505050565b60006119c3611799565b90506119cf8282611988565b919050565b600067ffffffffffffffff8211156119ef576119ee611959565b5b602082029050602081019050919050565b600080fd5b6000611a18611a13846119d4565b6119b9565b90508083825260208201905060208402830185811115611a3b57611a3a611a00565b5b835b81811015611a645780611a508882611820565b845260208401935050602081019050611a3d565b5050509392505050565b600082601f830112611a8357611a82611943565b5b8135611a93848260208601611a05565b91505092915050565b600067ffffffffffffffff821115611ab757611ab6611959565b5b602082029050602081019050919050565b6000611adb611ad684611a9c565b6119b9565b90508083825260208201905060208402830185811115611afe57611afd611a00565b5b835b81811015611b275780611b1388826117ce565b845260208401935050602081019050611b00565b5050509392505050565b600082601f830112611b4657611b45611943565b5b8135611b56848260208601611ac8565b91505092915050565b60008060408385031215611b7657611b756117a3565b5b600083013567ffffffffffffffff811115611b9457611b936117a8565b5b611ba085828601611a6e565b925050602083013567ffffffffffffffff811115611bc157611bc06117a8565b5b611bcd85828601611b31565b9150509250929050565b600073ffffffffffffffffffffffffffffffffffffffff82169050919050565b6000611c0282611bd7565b9050919050565b611c1281611bf7565b82525050565b6000602082019050611c2d6000830184611c09565b92915050565b600060a082019050611c486000830188611c09565b611c556020830187611862565b611c626040830186611862565b611c6f6060830185611862565b611c7c6080830184611919565b9695505050505050565b611c8f81611bf7565b8114611c9a57600080fd5b50565b600081359050611cac81611c86565b92915050565b60008060408385031215611cc957611cc86117a3565b5b6000611cd785828601611c9d565b9250506020611ce8858286016117ce565b9150509250929050565b7f4e487b7100000000000000000000000000000000000000000000000000000000600052602160045260246000fd5b60038110611d3257611d31611cf2565b5b50565b6000819050611d4382611d21565b919050565b6000611d5382611d35565b9050919050565b611d6381611d48565b82525050565b6000608082019050611d7e6000830187611d5a565b611d8b6020830186611919565b611d986040830185611862565b611da56060830184611862565b95945050505050565b600060208284031215611dc457611dc36117a3565b5b6000611dd284828501611c9d565b91505092915050565b6000608082019050611df06000830187611862565b611dfd6020830186611862565b611e0a6040830185611862565b611e176060830184611862565b95945050505050565b600082825260208201905092915050565b7f4d6f6e7374657273000000000000000000000000000000000000000000000000600082015250565b6000611e67600883611e20565b9150611e7282611e31565b602082019050919050565b60006020820190508181036000830152611e9681611e5a565b9050919050565b600081519050611eac81611c86565b92915050565b600060208284031215611ec857611ec76117a3565b5b6000611ed684828501611e9d565b91505092915050565b7f4d6f6e73746572734d6574610000000000000000000000000000000000000000600082015250565b6000611f15600c83611e20565b9150611f2082611edf565b602082019050919050565b60006020820190508181036000830152611f4481611f08565b9050919050565b7f54696d65506f74696f6e00000000000000000000000000000000000000000000600082015250565b6000611f81600a83611e20565b9150611f8c82611f4b565b602082019050919050565b60006020820190508181036000830152611fb081611f74565b9050919050565b7f52616e646f6d697a657200000000000000000000000000000000000000000000600082015250565b6000611fed600a83611e20565b9150611ff882611fb7565b602082019050919050565b6000602082019050818103600083015261201c81611fe0565b9050919050565b60006020820190506120386000830184611862565b92915050565b60008151905061204d81611810565b92915050565b600060208284031215612069576120686117a3565b5b60006120778482850161203e565b91505092915050565b600080fd5b600067ffffffffffffffff8211156120a05761209f611959565b5b6120a982611948565b9050602081019050919050565b60005b838110156120d45780820151818401526020810190506120b9565b60008484015250505050565b60006120f36120ee84612085565b6119b9565b90508281526020810184848401111561210f5761210e612080565b5b61211a8482856120b6565b509392505050565b600082601f83011261213757612136611943565b5b81516121478482602086016120e0565b91505092915050565b60008151905061215f816117b7565b92915050565b600080600080600060a08688031215612181576121806117a3565b5b600061218f8882890161203e565b955050602086015167ffffffffffffffff8111156121b0576121af6117a8565b5b6121bc88828901612122565b94505060406121cd88828901612150565b93505060606121de88828901612150565b92505060806121ef88828901612150565b9150509295509295909350565b7f536f6c74696365203a3a20596f7520646f206e6f74206f776e2074686174206d60008201527f6f6e737465720000000000000000000000000000000000000000000000000000602082015250565b6000612258602683611e20565b9150612263826121fc565b604082019050919050565b600060208201905081810360008301526122878161224b565b9050919050565b7f536f6c74696365203a3a204e6f7420656e6f75676820656e6572677900000000600082015250565b60006122c4601c83611e20565b91506122cf8261228e565b602082019050919050565b600060208201905081810360008301526122f3816122b7565b9050919050565b7f536f6c74696365203a3a20436f6f6c646f776e206e6f74207265616368656400600082015250565b6000612330601f83611e20565b915061233b826122fa565b602082019050919050565b6000602082019050818103600083015261235f81612323565b9050919050565b6000819050919050565b6000819050919050565b600061239561239061238b84612366565b612370565b6117ad565b9050919050565b6123a58161237a565b82525050565b60006020820190506123c0600083018461239c565b92915050565b6000602082840312156123dc576123db6117a3565b5b60006123ea84828501612150565b91505092915050565b60006040820190506124086000830185611c09565b6124156020830184611862565b9392505050565b6000819050919050565b600067ffffffffffffffff82169050919050565b600061245561245061244b8461241c565b612370565b612426565b9050919050565b6124658161243a565b82525050565b6000602082019050612480600083018461245c565b92915050565b7f536f6c74696365203a3a204172726179206c656e677468206d69736d61746368600082015250565b60006124bc602083611e20565b91506124c782612486565b602082019050919050565b600060208201905081810360008301526124eb816124af565b9050919050565b7f4e487b7100000000000000000000000000000000000000000000000000000000600052603260045260246000fd5b7f4e487b7100000000000000000000000000000000000000000000000000000000600052601160045260246000fd5b600061255b826117ad565b91507fffffffffffffffffffffffffffffffffffffffffffffffffffffffffffffffff820361258d5761258c612521565b5b600182019050919050565b7f536f6c74696365203a3a2043616e6e6f7420736574206265796f6e6420313030600082015250565b60006125ce602083611e20565b91506125d982612598565b602082019050919050565b600060208201905081810360008301526125fd816125c1565b9050919050565b600061260f826117ad565b915061261a836117ad565b925082820390508181111561263257612631612521565b5b92915050565b7f4e487b7100000000000000000000000000000000000000000000000000000000600052601260045260246000fd5b6000612672826117ad565b915061267d836117ad565b92508261268d5761268c612638565b5b828204905092915050565b60006126a3826117ad565b91506126ae836117ad565b92508282019050808211156126c6576126c5612521565b5b9291505056fea2646970667358221220aae15b45eefd8c4416eb2626552ba99fe38e23d70594ad0f5a47086eb432a33764736f6c63430008140033",
  "linkReferences": {},
  "deployedLinkReferences": {}
}